:100000001BC03FC03FC03DC0B3C33BC03AC039C0B6
:1000100038C037C036C035C03FC033C032C00037EB
:10002000003800360101010101010102040810201D
:10003000010300000000D10211241FBECFE5D2E071
:10004000DEBFCDBF11E0A0E6B0E0E8E7FAE002C015
:1000500005900D92A035B107D9F711E0A0E5B1E008
:1000600001C01D92AB37B107E1F710E0C8E3D0E063
:1000700003C02297FE01FAD4C633D107D1F7F0D4DA
:10008000F9C4BECF1F920F920FB60F9211240F909A
:100090000FBE0F901F9018951F920F920FB60F92E0
:1000A00011240F900FBE0F901F9018951F9383E09F
:1000B00042D49595879595958795182F83E03BD4E5
:1000C000212F30E0959587959595879528173907C5
:1000D00071F71A3110F483E009C0143210F481E092
:1000E00005C01D3310F080E001C082E01F9108952B
:1000F00004C0A89584E690E0EDD3D8DF8823C9F743
:100100000895EF92FF921F93CF93DF93182F8FE6FE
:1001100091E061E1412F46D264E5E62E61E0F62EE2
:10012000C12FD0E0CE0DDF1D0EC084E690E0D2D30B
:100130008FE691E030D28823C1F38FE691E020D2A0
:10014000F70181937F01EC16FD0691F7DF91CF91C6
:100150001F91FF90EF9008958FE691E061E141E0FB
:1001600021D203C084E690E0B5D38FE691E013D2AC
:100170008823C1F38FE691E003D2089503C084E69B
:1001800090E0A8D3E9DF90E0880F892F881F990BB2
:10019000892BA9F30895EF92FF921F93CF93DF93DA
:1001A000182F8FE691E061E1D9D1E4E5EE2EE1E090
:1001B000FE2EC12FD0E0CE0DDF1D06C08FE691E0F0
:1001C000F70161917F01D0D1EC16FD06B9F78FE6FA
:1001D00091E0FBD1D3DFDF91CF911F91FF90EF90A2
:1001E000089583E38093540181E08093550182E078
:1001F000D2DF88E086DF089580E8809354018EE0A6
:100200008093550182E0C7DF089584E18093540113
:1002100081E0C1DFA1DF089503C084E690E05AD3F6
:10022000F4DF8138D1F7089522E32093540110922E
:10023000550190935601809357011092580185E023
:10024000AADFEADF089520E32093540110925501BC
:10025000909356018093570184E09DDFDDDF089580
:1002600081E380935401109255011092560188E762
:10027000809357011092580185E08DDFCDDF0895FE
:100280001F93CF93DF931FEFCEE2D2E2A895CE016A
:10029000CBDFA7DF80915B01181710F4812F04C01A
:1002A000D0935101C09350012A969AE2CA33D907DC
:1002B00011F0182FEBCFA895D3DFA89580915001AE
:1002C00090915101C0DFDF91CF911F910895EF927E
:1002D000FF920F931F93CF93DF93B0E3EB2EBAE21D
:1002E000FB2E0EE212E2C6E7D0E0A895DFDE982FE3
:1002F000882309F499C08330B1F483D27B018C0147
:10030000F7DE7FD22CED35E040E050E0E20EF31E48
:10031000041F151FE616F7060807190708F4B0DFD3
:100320001092600081C08091600020915001309156
:1003300051018823D1F1232BE1F0913009F093C0D2
:1003400080915201909153010196909353018093B3
:10035000520187379105D1F40EC0809152019091DE
:1003600053010197909353018093520197FF0EC060
:1003700009C0913029F4109253011092520106C025
:10038000923021F4D0935301C0935201E091520175
:10039000F0915301EE0FFF1FEF59FF4F80819181C4
:1003A000909351018093500134C02115310571F0B3
:1003B000913019F4265F3F4F04C09230A1F42A50C7
:1003C000304030935101209350010DC0913029F4F9
:1003D000109351010093500106C0923021F4F09225
:1003E0005101E0925001809150019091510181534F
:1003F0009A4220F0109351010093500180915001D6
:10040000909151018E52924220F4F0925101E0926B
:100410005001809150019091510115DF66E970E023
:1004200080E090E0FCD161CFA9DE81B5806481BD20
:1004300085B7877E806185BF85B7806285BF85B7B8
:10044000806285BF889585B78F7D85BF85B78F7D95
:1004500085BF81B58F7B81BDDF91CF911F910F91BA
:10046000FF90EF900895923009F090CF76CF22E17F
:100470002093540110925501909356018093570197
:10048000709358016093590186E085DE089581E0FC
:1004900092E062E170E8EBDF82E092E064EF70E00E
:1004A000E6DF81E091E268E273E2E1DF86E091E27B
:1004B00061E070E0DCDF80E092E263E070E0D7DFD3
:1004C00081E092E261EF7FEFD2DF84E092E265E0CB
:1004D00070E0CDDF089581E08093540182E0809345
:1004E000550180E58093560183E055DE089581E053
:1004F00061E045D282E061E042D283E062E03FD237
:100500008DE028E130E00FB6F894A89521BD0FBE2C
:1005100081BDAB9A8BB780628BBF7894C7DD88238F
:1005200049F090E080916000882309F491E0909375
:100530006000DEDD81E060E05ED282E060E05BD200
:1005400084E690E0C7D181E061E055D28FE691E08A
:100550004AD0C1DF51DE9BDF83DE089510926C012B
:10056000660F60935C010895E0916C01E03138F40E
:10057000EF5FE0936C01F0E0E45AFE4F6083089572
:1005800080916D018F5F80936D01ECE5F1E0E80FE4
:10059000F11D8081089580916E0190916D01891BFC
:1005A0000895089510926D0140936E01660F616089
:1005B00060935C014F5F8CE591E0642FD5D0882378
:1005C00011F080E008951CD0089560916C016F5F78
:1005D0008CE591E0C9D010926C01882311F080E085
:1005E00008950ED0089501D00895C09AC29ABA9A7B
:1005F000B89A8FEF8FB98AE28DB980EF8EB90895DE
:100600008091700108958EB921E09BE2822F8A9536
:10061000F1F79DB9B29BFECF822F8A95F1F79DB974
:10062000769BF4CF81E08A95F1F78FB19FEF9FB968
:10063000B89A0895C29AC29BFECF81E0982F9A95EE
:10064000F1F7C0988A95F1F7C298C09A779B02C0DB
:1006500081E0089583E08093700180E00895C09860
:10066000C29AB29BFECF81E0982F9A95F1F7C09A7B
:100670008A95F1F7759B02C081E0089584E080932C
:10068000700180E00895CF92DF92EF92FF920F9376
:100690001F93CF93DF938C01E62E90917001892FE9
:1006A000816080937001F801808180FD03C09360B8
:1006B00090937001BFDF882309F44DC0FE2CE80140
:1006C000CC24C394DD24DA948091700180FD02C0B3
:1006D00081FF2EC0C29888818FB980EF94DFB898CF
:1006E0008EEF91DF9091700180FF09C090FF02C0F2
:1006F00081E001C082E08093700180E02CC090FD19
:1007000010C092FF0EC0F801808181608083C0928A
:10071000700190DF882319F0FE2CE80116C08AE0F2
:10072000EACF2196809170018E7F809370010DC079
:10073000B89880EF68DF8883F1E0FF1611F4DFB826
:1007400001C01FB821968EEF5EDFFA9409F0BCCF8E
:1007500086DF811181E0DF91CF911F910F91FF9092
:10076000EF90DF90CF900895109270018CDF089584
:100770001F920F920FB60F9211242F933F938F93D6
:100780009F93AF93BF938091750190917601A09153
:100790007701B091780130917901232F2A5F2D37AD
:1007A00028F02D570396A11DB11D03C00296A11D6F
:1007B000B11D209379018093750190937601A093E8
:1007C0007701B09378018091710190917201A091AD
:1007D0007301B09174010196A11DB11D8093710147
:1007E00090937201A0937301B0937401BF91AF9184
:1007F0009F918F913F912F910F900FBE0F901F905F
:1008000018958FB7F8942091750130917601409139
:100810007701509178018FBFB901CA0108959B01FA
:10082000AC017FB7F8948091710190917201A09111
:100830007301B09174016FB508B602FE05C06F3F39
:1008400019F00196A11DB11D7FBFBA2FA92F982FB6
:100850008827860F911DA11DB11D63E0880F991F88
:10086000AA1FBB1F6A95D1F7BC012EC0FFB7F89431
:100870008091710190917201A0917301B091740106
:10088000EFB508B602FE05C0EF3F19F00196A11DB5
:10089000B11DFFBFBA2FA92F982F88278E0F911D4A
:1008A000A11DB11DE3E0880F991FAA1FBB1FEA9588
:1008B000D1F7861B970B885E9340C0F221503040E1
:1008C0004040504068517C4F21153105410551058C
:1008D00069F60895019739F0019729F0880F991F5B
:1008E00001970197F1F70895789480B7806880BFE9
:1008F00080B7806480BF8CB580648CBD8FEF8DBD68
:1009000080B7807F876080BF89B7846089BF83B7E5
:10091000887F83BF8AB58C7F81608ABD83B7877FDC
:1009200083BF83B7887F836083BF86B1887F8660FB
:1009300086B9379A0895482F863008F0465080913E
:100940007A0127B1382F3295330F330F307C2F7255
:10095000322B90E084709070969587959695879548
:100960008295807F382B37B987B1807F842B87B9F8
:10097000369A3699FECF24B135B1C9010895282F92
:1009800030E0C901865D9F4FFC0144912C5D3F4FD3
:10099000F9018491882371F1282F30E0F901E25E9A
:1009A000FF4FE491AE2FB0E0205E3F4FF9018491FC
:1009B000E82FF0E0662351F42FB7F8948C91942F30
:1009C000909589238C93808189230BC0623061F4D8
:1009D0002FB7F8948C91942F909589238C938081D4
:1009E000842B80832FBF08959FB7F8948C91842B1C
:1009F0008C939FBF0895282F482F50E0CA01865D31
:100A00009F4FFC0134914C5D5F4FFA019491992303
:100A100031F1222319F48AB58F7304C0213021F4F7
:100A20008AB58F7C8ABD05C0243019F48CB58F7CC3
:100A30008CBDE92FF0E0E05EFF4FE491F0E066232B
:100A400041F49FB7F89480813095832380839FBFC2
:100A500008959FB7F8948081832B80839FBF08956A
:100A600043DF45DD34DCFECFEE0FFF1F0590F49130
:080A7000E02D0994F894FFCF7A
:100A78000138226A2274227E229222A622B022BA49
:100A880022C422CE22F62200230A231E232823462C
:100A98002350235A2364236E23782382238C23969E
:100AA80023A023AA23B423FA2322242C2440245E3F
:100AB8002472247C24862490249A24AE24C224CC34
:100AC80024D624F424FE24082512251C2526254492
:100AD80025582576259E25A825BC25C625D025DAA6
:100AE800250C2616262A263E26482652265C2666E9
:100AF80026702684268E26A226AC26C026CA26DE86
:100B080026F226FC261A272E273827422756276A38
:100B180027742792279C27B027BA27CE27D827F6ED
:100B28002700280A2814281E2832283C284628503E
:100B38002864289628AA28BE28D228E628F028045F
:100B4800290E2922293629542968297C29862990A1
:100B5800299A29AE29B829EA29FE291C2A262A0019
:00000001FF
